{
  "_format": "hh-sol-artifact-1",
  "contractName": "DutchAuction",
  "sourceName": "contracts/DutchAuction.sol",
  "abi": [
    {
      "inputs": [
        {
          "internalType": "address",
          "name": "_nftAddres",
          "type": "address"
        },
        {
          "internalType": "uint256",
          "name": "_id",
          "type": "uint256"
        }
      ],
      "stateMutability": "nonpayable",
      "type": "constructor"
    },
    {
      "anonymous": false,
      "inputs": [
        {
          "indexed": true,
          "internalType": "address",
          "name": "previousOwner",
          "type": "address"
        },
        {
          "indexed": true,
          "internalType": "address",
          "name": "newOwner",
          "type": "address"
        }
      ],
      "name": "OwnershipTransferred",
      "type": "event"
    },
    {
      "inputs": [],
      "name": "buy",
      "outputs": [],
      "stateMutability": "payable",
      "type": "function"
    },
    {
      "inputs": [],
      "name": "discountRate",
      "outputs": [
        {
          "internalType": "uint256",
          "name": "",
          "type": "uint256"
        }
      ],
      "stateMutability": "view",
      "type": "function"
    },
    {
      "inputs": [],
      "name": "duration",
      "outputs": [
        {
          "internalType": "uint256",
          "name": "",
          "type": "uint256"
        }
      ],
      "stateMutability": "view",
      "type": "function"
    },
    {
      "inputs": [],
      "name": "getPrice",
      "outputs": [
        {
          "internalType": "uint256",
          "name": "price",
          "type": "uint256"
        }
      ],
      "stateMutability": "view",
      "type": "function"
    },
    {
      "inputs": [],
      "name": "id",
      "outputs": [
        {
          "internalType": "uint256",
          "name": "",
          "type": "uint256"
        }
      ],
      "stateMutability": "view",
      "type": "function"
    },
    {
      "inputs": [],
      "name": "initialPrice",
      "outputs": [
        {
          "internalType": "uint256",
          "name": "",
          "type": "uint256"
        }
      ],
      "stateMutability": "view",
      "type": "function"
    },
    {
      "inputs": [],
      "name": "nft",
      "outputs": [
        {
          "internalType": "contract IERC721",
          "name": "",
          "type": "address"
        }
      ],
      "stateMutability": "view",
      "type": "function"
    },
    {
      "inputs": [],
      "name": "owner",
      "outputs": [
        {
          "internalType": "address",
          "name": "",
          "type": "address"
        }
      ],
      "stateMutability": "view",
      "type": "function"
    },
    {
      "inputs": [],
      "name": "renounceOwnership",
      "outputs": [],
      "stateMutability": "nonpayable",
      "type": "function"
    },
    {
      "inputs": [],
      "name": "sold",
      "outputs": [
        {
          "internalType": "bool",
          "name": "",
          "type": "bool"
        }
      ],
      "stateMutability": "view",
      "type": "function"
    },
    {
      "inputs": [],
      "name": "startTime",
      "outputs": [
        {
          "internalType": "uint256",
          "name": "",
          "type": "uint256"
        }
      ],
      "stateMutability": "view",
      "type": "function"
    },
    {
      "inputs": [
        {
          "internalType": "address",
          "name": "newOwner",
          "type": "address"
        }
      ],
      "name": "transferOwnership",
      "outputs": [],
      "stateMutability": "nonpayable",
      "type": "function"
    }
  ],
  "bytecode": "0x6080604052670de0b6b3a7640000600255601460035562093a806004553480156200002957600080fd5b506040516200100b3803806200100b83398181016040528101906200004f919062000319565b6200006f62000063620000dc60201b60201c565b620000e460201b60201c565b806006819055504260058190555081600160006101000a81548173ffffffffffffffffffffffffffffffffffffffff021916908373ffffffffffffffffffffffffffffffffffffffff160217905550620000d442620001a860201b620005961760201c565b50506200038e565b600033905090565b60008060009054906101000a900473ffffffffffffffffffffffffffffffffffffffff169050816000806101000a81548173ffffffffffffffffffffffffffffffffffffffff021916908373ffffffffffffffffffffffffffffffffffffffff1602179055508173ffffffffffffffffffffffffffffffffffffffff168173ffffffffffffffffffffffffffffffffffffffff167f8be0079c531659141344cd1fd0a4f28419497f9722a3daafe3b4186f6b6457e060405160405180910390a35050565b6200024881604051602401620001bf919062000371565b6040516020818303038152906040527ff82c50f1000000000000000000000000000000000000000000000000000000007bffffffffffffffffffffffffffffffffffffffffffffffffffffffff19166020820180517bffffffffffffffffffffffffffffffffffffffffffffffffffffffff83818316178352505050506200024b60201b60201c565b50565b60008151905060006a636f6e736f6c652e6c6f679050602083016000808483855afa5050505050565b600080fd5b600073ffffffffffffffffffffffffffffffffffffffff82169050919050565b6000620002a68262000279565b9050919050565b620002b88162000299565b8114620002c457600080fd5b50565b600081519050620002d881620002ad565b92915050565b6000819050919050565b620002f381620002de565b8114620002ff57600080fd5b50565b6000815190506200031381620002e8565b92915050565b6000806040838503121562000333576200033262000274565b5b60006200034385828601620002c7565b9250506020620003568582860162000302565b9150509250929050565b6200036b81620002de565b82525050565b600060208201905062000388600083018462000360565b92915050565b610c6d806200039e6000396000f3fe6080604052600436106100a75760003560e01c80638da5cb5b116100645780638da5cb5b1461019a57806398d5fdca146101c5578063a6f2ae3a146101f0578063af640d0f146101fa578063e6c0e6d514610225578063f2fde38b14610250576100a7565b806302c7e7af146100ac5780630fb5a6b4146100d75780631d0806ae1461010257806347ccca021461012d578063715018a61461015857806378e979251461016f575b600080fd5b3480156100b857600080fd5b506100c1610279565b6040516100ce91906107bd565b60405180910390f35b3480156100e357600080fd5b506100ec61028c565b6040516100f991906107f1565b60405180910390f35b34801561010e57600080fd5b50610117610292565b60405161012491906107f1565b60405180910390f35b34801561013957600080fd5b50610142610298565b60405161014f919061088b565b60405180910390f35b34801561016457600080fd5b5061016d6102be565b005b34801561017b57600080fd5b506101846102d2565b60405161019191906107f1565b60405180910390f35b3480156101a657600080fd5b506101af6102d8565b6040516101bc91906108c7565b60405180910390f35b3480156101d157600080fd5b506101da610301565b6040516101e791906107f1565b60405180910390f35b6101f861033b565b005b34801561020657600080fd5b5061020f610507565b60405161021c91906107f1565b60405180910390f35b34801561023157600080fd5b5061023a61050d565b60405161024791906107f1565b60405180910390f35b34801561025c57600080fd5b5061027760048036038101906102729190610913565b610513565b005b600760009054906101000a900460ff1681565b60045481565b60025481565b600160009054906101000a900473ffffffffffffffffffffffffffffffffffffffff1681565b6102c661062f565b6102d060006106ad565b565b60055481565b60008060009054906101000a900473ffffffffffffffffffffffffffffffffffffffff16905090565b60008060055442610312919061096f565b905060006003548261032491906109a3565b905080600254610334919061096f565b9250505090565b60045460055461034b91906109e5565b421061038c576040517f08c379a000000000000000000000000000000000000000000000000000000000815260040161038390610a76565b60405180910390fd5b6000610396610301565b9050803410156103db576040517f08c379a00000000000000000000000000000000000000000000000000000000081526004016103d290610ae2565b60405180910390fd5b600160009054906101000a900473ffffffffffffffffffffffffffffffffffffffff1673ffffffffffffffffffffffffffffffffffffffff166323b872dd6104216102d8565b336006546040518463ffffffff1660e01b815260040161044393929190610b02565b600060405180830381600087803b15801561045d57600080fd5b505af1158015610471573d6000803e3d6000fd5b5050505060008134610483919061096f565b905061048e81610596565b60008111156104e8576104a081610596565b3373ffffffffffffffffffffffffffffffffffffffff166108fc829081150290604051600060405180830381858888f193505050501580156104e6573d6000803e3d6000fd5b505b6001600760006101000a81548160ff0219169083151502179055505050565b60065481565b60035481565b61051b61062f565b600073ffffffffffffffffffffffffffffffffffffffff168173ffffffffffffffffffffffffffffffffffffffff160361058a576040517f08c379a000000000000000000000000000000000000000000000000000000000815260040161058190610bab565b60405180910390fd5b610593816106ad565b50565b61062c816040516024016105aa91906107f1565b6040516020818303038152906040527ff82c50f1000000000000000000000000000000000000000000000000000000007bffffffffffffffffffffffffffffffffffffffffffffffffffffffff19166020820180517bffffffffffffffffffffffffffffffffffffffffffffffffffffffff8381831617835250505050610771565b50565b61063761079a565b73ffffffffffffffffffffffffffffffffffffffff166106556102d8565b73ffffffffffffffffffffffffffffffffffffffff16146106ab576040517f08c379a00000000000000000000000000000000000000000000000000000000081526004016106a290610c17565b60405180910390fd5b565b60008060009054906101000a900473ffffffffffffffffffffffffffffffffffffffff169050816000806101000a81548173ffffffffffffffffffffffffffffffffffffffff021916908373ffffffffffffffffffffffffffffffffffffffff1602179055508173ffffffffffffffffffffffffffffffffffffffff168173ffffffffffffffffffffffffffffffffffffffff167f8be0079c531659141344cd1fd0a4f28419497f9722a3daafe3b4186f6b6457e060405160405180910390a35050565b60008151905060006a636f6e736f6c652e6c6f679050602083016000808483855afa5050505050565b600033905090565b60008115159050919050565b6107b7816107a2565b82525050565b60006020820190506107d260008301846107ae565b92915050565b6000819050919050565b6107eb816107d8565b82525050565b600060208201905061080660008301846107e2565b92915050565b600073ffffffffffffffffffffffffffffffffffffffff82169050919050565b6000819050919050565b600061085161084c6108478461080c565b61082c565b61080c565b9050919050565b600061086382610836565b9050919050565b600061087582610858565b9050919050565b6108858161086a565b82525050565b60006020820190506108a0600083018461087c565b92915050565b60006108b18261080c565b9050919050565b6108c1816108a6565b82525050565b60006020820190506108dc60008301846108b8565b92915050565b600080fd5b6108f0816108a6565b81146108fb57600080fd5b50565b60008135905061090d816108e7565b92915050565b600060208284031215610929576109286108e2565b5b6000610937848285016108fe565b91505092915050565b7f4e487b7100000000000000000000000000000000000000000000000000000000600052601160045260246000fd5b600061097a826107d8565b9150610985836107d8565b925082820390508181111561099d5761099c610940565b5b92915050565b60006109ae826107d8565b91506109b9836107d8565b92508282026109c7816107d8565b915082820484148315176109de576109dd610940565b5b5092915050565b60006109f0826107d8565b91506109fb836107d8565b9250828201905080821115610a1357610a12610940565b5b92915050565b600082825260208201905092915050565b7f41756374696f6e20656e64656400000000000000000000000000000000000000600082015250565b6000610a60600d83610a19565b9150610a6b82610a2a565b602082019050919050565b60006020820190508181036000830152610a8f81610a53565b9050919050565b7f455448203c207072696365000000000000000000000000000000000000000000600082015250565b6000610acc600b83610a19565b9150610ad782610a96565b602082019050919050565b60006020820190508181036000830152610afb81610abf565b9050919050565b6000606082019050610b1760008301866108b8565b610b2460208301856108b8565b610b3160408301846107e2565b949350505050565b7f4f776e61626c653a206e6577206f776e657220697320746865207a65726f206160008201527f6464726573730000000000000000000000000000000000000000000000000000602082015250565b6000610b95602683610a19565b9150610ba082610b39565b604082019050919050565b60006020820190508181036000830152610bc481610b88565b9050919050565b7f4f776e61626c653a2063616c6c6572206973206e6f7420746865206f776e6572600082015250565b6000610c01602083610a19565b9150610c0c82610bcb565b602082019050919050565b60006020820190508181036000830152610c3081610bf4565b905091905056fea2646970667358221220c144ab569a877d2084101953932dd10fcd1397269f1cb3c85241e68340bccc2d64736f6c63430008110033",
  "linkReferences": {},
  "deployedLinkReferences": {}
}